:020000040800F2
:100000001008002045040008FD030008FD03000857
:10001000FD030008FD030008FD03000800000000C8
:10002000000000000000000000000000FD030008C8
:10003000FD03000800000000FD030008DF010008C8
:10004000AB48006850F00400A94908604CF25030F9
:10005000A84908600020A8490860A848006840F442
:10006000E04050F07000A5490860A548006840F4E1
:10007000E04050F07000A24908609F48006840F4DA
:100080004C5050F033009C4908609E48006850F482
:1000900000409C4908609C48006840F4434050F090
:1000A0005000994908609948006840F4434050F076
:1000B0005000964908609648006840F4434050F06C
:1000C0005000934908609348006840F4434050F062
:1000D0005000904908609048006850F001008E4937
:1000E000086070478D488E49086007208D49086078
:1000F000704780B58C48006850F001008A4908605C
:100100008A48006840F4801050F002008749086077
:100110008548006850F08070834908608248006814
:100120008001FBD58148006850F002007F490860DB
:100130007E4800680007FBD57D48006840F4C05049
:1001400050F02D007A4908607A48006850F000505D
:1001500078490860784879490860794879490860A1
:1001600079487A4908607A487A4908607A487B4930
:1001700008607B487B4908607B487C4908607C4874
:100180007C49086001207C490860FFF759FFFFF7B0
:10019000A9FF45F255507949088001207849088027
:1001A00040F6FF70774908804CF6CC4073490880D0
:1001B0004FF400706D49086073486E4908604CF256
:1001C00050305249086071480068B0F5E16FEFD1D6
:1001D00000206E49086000206D490860E8E74AF693
:1001E000AA20664908806B480068000618D569484F
:1001F0000068C00502D40120654908605FF4400032
:100200005A49086061480068801EC62803D2202031
:100210005649086007E05FF400105449086002E0A6
:10022000E020524908605A480068012804D1574824
:100230000068401C5549086054480068801EC62864
:100240000BD24FF48070494908605348494908600F
:100250004CF250302C4908600AE05FF0807043494E
:1002600008605FF04060434908600020264908604C
:1002700046480068002801D1012000E000204549DF
:100280000968C0B2002819D0080617D5434800688D
:10029000401C42490860414800680F2803D15FF4C0
:1002A0000020324908603D4800681E281DDB0820F8
:1002B0002E49086000203949086016E03748006878
:1002C000401C3649086035480068022803D15FF4B5
:1002D00000202649086031480068052805DB082011
:1002E0002249086000202D49086070470000000086
:1002F000282C01402C2C0140202C0140182C0140BE
:100300001C2C0140442C0140342C0140382C01406D
:100310003C2C0140402C0140002C0140009F240057
:1003200014E000E010E000E0001002400410024081
:10033000181002401C1002404424202200080140F2
:10034000AAAA42240408014022929942000C0140CA
:1003500044222222040C014042444444001401403F
:1003600001800002040001400800E09010080140F4
:10037000400007FC100C0140101401400030004008
:10038000043000400830004000100020040000202D
:1003900000000020080C01400004000808000020B4
:1003A00010B5074979441831064C7C44163404E0F2
:1003B0000A68081D511888470146A142F8D110BDAE
:1003C0002C0000003800000050F8041B61B150F808
:1003D000042BD30744BFA9F101039A18002342F864
:1003E000043B091FFAD1EFE770470000DDFFFFFF74
:1003F0000C0000000000002000000000FEE70000EC
:1004000000F00BF8002801D0FFF7CAFF0020C0461B
:10041000C046FFF76EFE00F002F80120704700F0C2
:1004200001B800000746384600F002F8FBE700007C
:1004300080B5C046C046024A11001820ABBEFBE79B
:1004400026000200C046C046C046C046FFF7D8FF9F
:0400000508000445A6
:00000001FF
