:020000040800F2
:100000001008002059040008110400081104000819
:100010001104000811040008110400080000000089
:1000200000000000000000000000000011040008B3
:10003000110400080000000011040008C9010008B4
:10004000B048006850F00400AE4908604CF25030EF
:10005000AD4908600020AD490860AD48006840F433
:10006000E04050F07000AA490860AA48006840F4D7
:10007000E04050F07000A7490860A448006840F4D0
:100080004C5050F03300A1490860A348006850F478
:100090000040A1490860A148006840F4434050F086
:1000A00050009E4908609E48006840F4434050F06C
:1000B00050009B4908609B48006840F4434050F062
:1000C0005000984908609848006840F4434050F058
:1000D0005000954908609548006850F00100934928
:1000E0000860704792489349086007209249086069
:1000F000704780B59148006850F001008F49086052
:100100008F48006840F4801050F002008C4908606D
:100110008A48006850F08070884908608748006805
:100120008001FBD58648006850F0020084490860D1
:10013000834800680007FBD58248006840F4C0503F
:1001400050F02D007F4908607F48006850F0005053
:100150007D4908607D487E4908607E487E49086088
:100160007E487F4908607F487F4908607F48804912
:10017000086080488049086080488149086081485B
:1001800081490860012081490860FFF759FFFFF7A6
:10019000A9FF45F255507E49088001207D4908801D
:1001A00040F6FF707C4908804CF6CC4078490880C6
:1001B0007A480068B0F5E16FFAD10020774908600D
:1001C000002077490860F3E74AF6AA2070490880C2
:1001D00074480068000618D572480068C00502D44B
:1001E00001206F4908606D480068801EC62803D250
:1001F000E020634908600BE05FF44000604908605C
:100200005FF400105E49086002E0E0205C4908608D
:1002100063480068012804D160480068401C5F49B9
:1002200008605E480068801EC62816D24FF48070B1
:10023000534908605C48544908604CF250303749D3
:1002400008604FF400704E49086058484E490860F5
:100250004CF250303249086015E05FF08070484938
:1002600008605FF040604849086000202B49086042
:100270005FF00070424908605FF0405042490860FA
:1002800000202749086045480068002801D1012066
:1002900000E0002043490968C0B2002819D00806D0
:1002A00017D543480068401C414908604048006831
:1002B0000F2803D15FF40020314908603C480068F2
:1002C0001E281DDB08202E490860002038490860E0
:1002D00016E037480068401C35490860344800681B
:1002E000022803D15FF400202549086030480068E7
:1002F000052805DB08202249086000202C490860F9
:1003000070470000282C01402C2C0140202C01407B
:10031000182C01401C2C0140442C0140342C01407D
:10032000382C01403C2C0140402C0140002C014065
:10033000009F240014E000E010E000E00010024004
:1003400004100240181002401C10024044242022D5
:1003500000080140AAAA42240408014022929942BE
:10036000000C014044222222040C01404244444437
:100370000014014001800002040001400800E090E8
:1003800010080140400007FC100C0140101401400F
:1003900000300040043000400830004004000020DD
:1003A00000000020080C014000040008001000209C
:1003B0000800002010B5074979441831064C7C44E8
:1003C000163404E00A68081D511888470146A14206
:1003D000F8D110BD2C0000003800000050F8041BBC
:1003E00061B150F8042BD30744BFA9F101039A1857
:1003F000002342F8043B091FFAD1EFE770470000E1
:10040000DDFFFFFF0C0000000000002000000000E6
:10041000FEE7000000F00BF8002801D0FFF7CAFF4C
:100420000020C046C046FFF764FE00F002F801203D
:10043000704700F001B800000746384600F002F8A7
:10044000FBE7000080B5C046C046024A11001820F4
:10045000ABBEFBE726000200C046C046C046C04611
:04046000FFF7D8FFCB
:040000050800045992
:00000001FF
